{"abi":[{"type":"constructor","inputs":[{"name":"rewardToken_","type":"address","internalType":"address"},{"name":"stakingDurationInBlocks_","type":"uint256","internalType":"uint256"},{"name":"stakingFundAmount_","type":"uint256","internalType":"uint256"},{"name":"owner_","type":"address","internalType":"address"}],"stateMutability":"nonpayable"},{"type":"function","name":"calculateStakingRewardPoints","inputs":[{"name":"tokenAmount_","type":"uint72","internalType":"uint72"},{"name":"lockingPeriodInBlocks_","type":"uint24","internalType":"uint24"}],"outputs":[{"name":"","type":"uint128","internalType":"uint128"}],"stateMutability":"pure"},{"type":"function","name":"getRewards","inputs":[],"outputs":[],"stateMutability":"nonpayable"},{"type":"function","name":"lockTokens","inputs":[{"name":"tokenAmount_","type":"uint72","internalType":"uint72"},{"name":"lockingPeriodInBlocks_","type":"uint24","internalType":"uint24"}],"outputs":[],"stateMutability":"nonpayable"},{"type":"function","name":"owner","inputs":[],"outputs":[{"name":"","type":"address","internalType":"address"}],"stateMutability":"view"},{"type":"function","name":"poolToken","inputs":[],"outputs":[{"name":"","type":"address","internalType":"contract IERC20"}],"stateMutability":"view"},{"type":"function","name":"rewardPointsEarned","inputs":[{"name":"","type":"address","internalType":"address"}],"outputs":[{"name":"","type":"uint128","internalType":"uint128"}],"stateMutability":"view"},{"type":"function","name":"rewardToken","inputs":[],"outputs":[{"name":"","type":"address","internalType":"contract IERC20"}],"stateMutability":"view"},{"type":"function","name":"setPoolToken","inputs":[{"name":"poolToken_","type":"address","internalType":"address"},{"name":"stakingFundAddress_","type":"address","internalType":"address"}],"outputs":[],"stateMutability":"nonpayable"},{"type":"function","name":"stakes","inputs":[{"name":"","type":"address","internalType":"address"}],"outputs":[{"name":"tokenAmount","type":"uint72","internalType":"uint72"},{"name":"lockingPeriodInBlocks","type":"uint24","internalType":"uint24"},{"name":"startBlock","type":"uint32","internalType":"uint32"},{"name":"expectedStakingRewardPoints","type":"uint128","internalType":"uint128"}],"stateMutability":"view"},{"type":"function","name":"stakingFundAmount","inputs":[],"outputs":[{"name":"","type":"uint256","internalType":"uint256"}],"stateMutability":"view"},{"type":"function","name":"stakingProgramEndsBlock","inputs":[],"outputs":[{"name":"","type":"uint256","internalType":"uint256"}],"stateMutability":"view"},{"type":"function","name":"totalRewardPoints","inputs":[],"outputs":[{"name":"","type":"uint256","internalType":"uint256"}],"stateMutability":"view"},{"type":"function","name":"unlockTokens","inputs":[],"outputs":[],"stateMutability":"nonpayable"},{"type":"event","name":"RewardGranted","inputs":[{"name":"recipient","type":"address","indexed":false,"internalType":"address"},{"name":"amountEarned","type":"uint256","indexed":false,"internalType":"uint256"}],"anonymous":false},{"type":"event","name":"StakeLocked","inputs":[{"name":"recipient","type":"address","indexed":false,"internalType":"address"},{"name":"tokenAmount","type":"uint256","indexed":false,"internalType":"uint256"},{"name":"lockingPeriodInBlocks","type":"uint256","indexed":false,"internalType":"uint256"},{"name":"expectedStakingRewardPoints","type":"uint256","indexed":false,"internalType":"uint256"}],"anonymous":false},{"type":"event","name":"StakeUnlocked","inputs":[{"name":"recipient","type":"address","indexed":false,"internalType":"address"},{"name":"tokenAmount","type":"uint256","indexed":false,"internalType":"uint256"},{"name":"lockingPeriodInBlocks","type":"uint256","indexed":false,"internalType":"uint256"},{"name":"rewardPoints","type":"uint256","indexed":false,"internalType":"uint256"}],"anonymous":false},{"type":"event","name":"StakeUnlockedPrematurely","inputs":[{"name":"recipient","type":"address","indexed":false,"internalType":"address"},{"name":"tokenAmount","type":"uint256","indexed":false,"internalType":"uint256"},{"name":"lockingPeriodInBlocks","type":"uint256","indexed":false,"internalType":"uint256"},{"name":"actualLockingPeriodInBlocks","type":"uint256","indexed":false,"internalType":"uint256"}],"anonymous":false}],"bytecode":{"object":"0x60e060405234801561001057600080fd5b506040516115f63803806115f683398101604081905261002f91610140565b6001600160a01b03811661008a5760405162461bcd60e51b815260206004820152601c60248201527f4f776e657220616464726573732063616e6e6f74206265207a65726f0000000060448201526064015b60405180910390fd5b6001600160a01b0380821660805284166100f05760405162461bcd60e51b815260206004820152602160248201527f6f696c6572546f6b656e20616464726573732063616e6e6f74206265207a65726044820152606f60f81b6064820152608401610081565b600080546001600160a01b0319166001600160a01b0386161790556101158343610186565b60a0525060c052506101ad9050565b80516001600160a01b038116811461013b57600080fd5b919050565b6000806000806080858703121561015657600080fd5b61015f85610124565b9350602085015192506040850151915061017b60608601610124565b905092959194509250565b808201808211156101a757634e487b7160e01b600052601160045260246000fd5b92915050565b60805160a05160c0516113e961020d600039600081816101930152818161048601528181610b2001528181610c190152610d0d015260008181610232015281816102c901526105f90152600081816101f301526109ca01526113e96000f3fe608060405234801561001057600080fd5b50600436106100cf5760003560e01c8063bc0925ae1161008c578063cbdf382c11610066578063cbdf382c14610286578063f6ffab8814610299578063f7c618c1146102ac578063f968f493146102bf57600080fd5b8063bc0925ae1461022d578063c2e8caf614610254578063c959360b1461025d57600080fd5b80630572b0cc146100d457806316934fc4146100de578063378592c81461017b57806352946b041461018e578063798633b9146101c35780638da5cb5b146101ee575b600080fd5b6100dc6102c7565b005b6101346100ec3660046111c0565b6002602052600090815260409020546001600160481b03811690600160481b810462ffffff1690600160601b810463ffffffff1690600160801b90046001600160801b031684565b604080516001600160481b03909516855262ffffff909316602085015263ffffffff909116918301919091526001600160801b031660608201526080015b60405180910390f35b6100dc6101893660046111e2565b6105a2565b6101b57f000000000000000000000000000000000000000000000000000000000000000081565b604051908152602001610172565b6101d66101d13660046111e2565b610922565b6040516001600160801b039091168152602001610172565b6102157f000000000000000000000000000000000000000000000000000000000000000081565b6040516001600160a01b039091168152602001610172565b6101b57f000000000000000000000000000000000000000000000000000000000000000081565b6101b560045481565b6101d661026b3660046111c0565b6003602052600090815260409020546001600160801b031681565b600154610215906001600160a01b031681565b6100dc6102a736600461122f565b6109bf565b600054610215906001600160a01b031681565b6100dc610de5565b7f000000000000000000000000000000000000000000000000000000000000000043116103575760405162461bcd60e51b815260206004820152603360248201527f596f752063616e206f6e6c79206765742052657761726473206166746572205360448201527274616b696e672050726f6772616d20656e647360681b60648201526084015b60405180910390fd5b336000908152600260205260409020546001600160481b0316156103fc5760405162461bcd60e51b815260206004820152605060248201527f596f75207374696c6c20686176652061207374616b65206c6f636b6564202d2060448201527f706c6561736520756e6c6f636b2066697273742c20646f6e2774206c6561766560648201526f2066726565206d6f6e6579206865726560801b608482015260a40161034e565b336000908152600360205260409020546001600160801b03166104615760405162461bcd60e51b815260206004820152601f60248201527f596f7520646f6e2774206861766520616e7920726577617264506f696e747300604482015260640161034e565b600454336000908152600360205260408120549091906104aa906001600160801b03167f0000000000000000000000000000000000000000000000000000000000000000611278565b6104b4919061128f565b3360008181526003602052604080822080546fffffffffffffffffffffffffffffffff191690559054905163a9059cbb60e01b81526004810192909252602482018390529192506001600160a01b039091169063a9059cbb906044016020604051808303816000875af115801561052f573d6000803e3d6000fd5b505050506040513d601f19601f8201168201806040525081019061055391906112b1565b61059f5760405162461bcd60e51b815260206004820152601a60248201527f5472616e73666572206f662072657761726473206661696c6564000000000000604482015260640161034e565b50565b6001546001600160a01b03166105ee5760405162461bcd60e51b81526020600482015260116024820152701c1bdbdb151bdad95b881b9bdd081cd95d607a1b604482015260640161034e565b61061d62ffffff82167f00000000000000000000000000000000000000000000000000000000000000006112d3565b4311156106865760405162461bcd60e51b815260206004820152603160248201527f596f7572206c6f636b20706572696f642065786365656473205374616b696e6760448201527010283937b3b930b690323ab930ba34b7b760791b606482015260840161034e565b336000908152600260205260409020546001600160481b0316156106de5760405162461bcd60e51b815260206004820152600f60248201526e416c7265616479207374616b696e6760881b604482015260640161034e565b60006106ea8383610922565b604080516080810182526001600160481b03868116825262ffffff86811660208085019182524363ffffffff9081168688019081526001600160801b0389811660608901818152336000908152600290965299852089518154975194519b5199166bffffffffffffffffffffffff1990971696909617600160481b9390971692909202959095176bffffffffffffffffffffffff16600160601b9890921697909702841617600160801b94909316939093029190911790556004805494955091936107b69084906112e6565b909155505033600090815260036020526040812080548492906107e39084906001600160801b03166112f9565b82546001600160801b039182166101009390930a9283029190920219909116179055506001546040516323b872dd60e01b81523360048201523060248201526001600160481b03861660448201526001600160a01b03909116906323b872dd906064016020604051808303816000875af1158015610865573d6000803e3d6000fd5b505050506040513d601f19601f8201168201806040525081019061088991906112b1565b6108df5760405162461bcd60e51b815260206004820152602160248201527f5472616e7366657246726f6d206f6620706f6f6c546f6b656e73206661696c656044820152601960fa1b606482015260840161034e565b7fe7dbea143058f90be7a1644e539342c25ddc5379868fe922bab596de99debf41338585856040516109149493929190611320565b60405180910390a150505050565b60008062ffffff831661093e816001600160481b038716611278565b6109489190611278565b9050600081116109b65760405162461bcd60e51b815260206004820152603360248201527f4e65697468657220746f6b656e416d6f756e74206e6f72206c6f636b696e675060448201527206572696f6420636f756c646e2774206265203606c1b606482015260840161034e565b90505b92915050565b336001600160a01b037f00000000000000000000000000000000000000000000000000000000000000001614610a375760405162461bcd60e51b815260206004820152601b60248201527f43616e206f6e6c792062652063616c6c6564206279206f776e65720000000000604482015260640161034e565b6001546001600160a01b031615610a905760405162461bcd60e51b815260206004820152601960248201527f706f6f6c546f6b656e2077617320616c72656164792073657400000000000000604482015260640161034e565b6001600160a01b038216610ae65760405162461bcd60e51b815260206004820181905260248201527f706f6f6c546f6b656e20616464726573732063616e6e6f74206265207a65726f604482015260640161034e565b600180546001600160a01b0319166001600160a01b03848116919091179091556000546040516370a0823160e01b815283831660048201527f00000000000000000000000000000000000000000000000000000000000000009291909116906370a0823190602401602060405180830381865afa158015610b6b573d6000803e3d6000fd5b505050506040513d601f19601f82011682018060405250810190610b8f919061135d565b1015610bf15760405162461bcd60e51b815260206004820152602b60248201527f5374616b696e6746756e6420646f65736e2774206861766520656e6f7567682060448201526a4f494c2062616c616e636560a81b606482015260840161034e565b600054604051636eb1769f60e11b81526001600160a01b0383811660048301523060248301527f000000000000000000000000000000000000000000000000000000000000000092169063dd62ed3e90604401602060405180830381865afa158015610c61573d6000803e3d6000fd5b505050506040513d601f19601f82011682018060405250810190610c85919061135d565b1015610ce55760405162461bcd60e51b815260206004820152602960248201527f5374616b696e6746756e6420646f65736e2774206861766520656e6f75676820604482015268616c6c6f77616e636560b81b606482015260840161034e565b6000546040516323b872dd60e01b81526001600160a01b0383811660048301523060248301527f00000000000000000000000000000000000000000000000000000000000000006044830152909116906323b872dd906064016020604051808303816000875af1158015610d5d573d6000803e3d6000fd5b505050506040513d601f19601f82011682018060405250810190610d8191906112b1565b610de15760405162461bcd60e51b815260206004820152602b60248201527f5472616e7366657246726f6d206f66204f494c2066726f6d205374616b696e6760448201526a119d5b990819985a5b195960aa1b606482015260840161034e565b5050565b6001546001600160a01b0316610e315760405162461bcd60e51b81526020600482015260116024820152701c1bdbdb151bdad95b881b9bdd081cd95d607a1b604482015260640161034e565b336000908152600260209081526040808320815160808101835290546001600160481b038116808352600160481b820462ffffff1694830194909452600160601b810463ffffffff1692820192909252600160801b9091046001600160801b0316606082015291819003610ee75760405162461bcd60e51b815260206004820181905260248201527f596f7520646f6e277420686176652061207374616b6520746f20756e6c6f636b604482015260640161034e565b816040015163ffffffff164311610f665760405162461bcd60e51b815260206004820152603c60248201527f596f752063616e277420776974686472617720746865207374616b6520696e2060448201527f7468652073616d6520626c6f636b20697420776173206c6f636b656400000000606482015260840161034e565b610f6f82611043565b3360008181526002602052604080822091909155600154905163a9059cbb60e01b81526004810192909252602482018390526001600160a01b03169063a9059cbb906044016020604051808303816000875af1158015610fd3573d6000803e3d6000fd5b505050506040513d601f19601f82011682018060405250810190610ff791906112b1565b610de15760405162461bcd60e51b815260206004820152601a60248201527f506f6f6c20746f6b656e207472616e73666572206661696c6564000000000000604482015260640161034e565b806020015162ffffff16816040015161105c9190611376565b63ffffffff1643101561116357606081015133600090815260036020526040812080549091906110969084906001600160801b0316611393565b92506101000a8154816001600160801b0302191690836001600160801b0316021790555080606001516001600160801b0316600460008282546110d991906112d3565b90915550508051602082015160408301517f6c6f3c7d8c87976393011cc962da12841024bc1d62d2de21716a6306ab314ef392339290916111209063ffffffff16436112d3565b604080516001600160a01b0390951685526001600160481b03909316602085015262ffffff9091169183019190915260608201526080015b60405180910390a150565b7f391930ab48e95a9040c849cc86e1b2f63c711a1f59d6e324ce775dc9a0051056338260000151836020015184606001516040516111589493929190611320565b80356001600160a01b03811681146111bb57600080fd5b919050565b6000602082840312156111d257600080fd5b6111db826111a4565b9392505050565b600080604083850312156111f557600080fd5b82356001600160481b038116811461120c57600080fd5b9150602083013562ffffff8116811461122457600080fd5b809150509250929050565b6000806040838503121561124257600080fd5b61124b836111a4565b9150611259602084016111a4565b90509250929050565b634e487b7160e01b600052601160045260246000fd5b80820281158282048414176109b9576109b9611262565b6000826112ac57634e487b7160e01b600052601260045260246000fd5b500490565b6000602082840312156112c357600080fd5b815180151581146109b657600080fd5b818103818111156109b9576109b9611262565b808201808211156109b9576109b9611262565b6001600160801b0381811683821601908082111561131957611319611262565b5092915050565b6001600160a01b039490941684526001600160481b0392909216602084015262ffffff1660408301526001600160801b0316606082015260800190565b60006020828403121561136f57600080fd5b5051919050565b63ffffffff81811683821601908082111561131957611319611262565b6001600160801b038281168282160390808211156113195761131961126256fea2646970667358221220949be0810cf7b99eaee1c821b8dfddcf7f1f44eba8ab0be73f634e6a08d7967064736f6c63430008190033","linkReferences":{}},"methodIdentifiers":{"calculateStakingRewardPoints(uint72,uint24)":"798633b9","getRewards()":"0572b0cc","lockTokens(uint72,uint24)":"378592c8","owner()":"8da5cb5b","poolToken()":"cbdf382c","rewardPointsEarned(address)":"c959360b","rewardToken()":"f7c618c1","setPoolToken(address,address)":"f6ffab88","stakes(address)":"16934fc4","stakingFundAmount()":"52946b04","stakingProgramEndsBlock()":"bc0925ae","totalRewardPoints()":"c2e8caf6","unlockTokens()":"f968f493"},"id":26}