{"abi":[{"type":"constructor","inputs":[{"name":"initialOwner","type":"address","internalType":"address"},{"name":"_tokenA","type":"address","internalType":"address"},{"name":"_tokenB","type":"address","internalType":"address"},{"name":"_rateAtoB","type":"uint256","internalType":"uint256"},{"name":"_rateBtoA","type":"uint256","internalType":"uint256"}],"stateMutability":"nonpayable"},{"type":"function","name":"owner","inputs":[],"outputs":[{"name":"","type":"address","internalType":"address"}],"stateMutability":"view"},{"type":"function","name":"rateAtoB","inputs":[],"outputs":[{"name":"","type":"uint256","internalType":"uint256"}],"stateMutability":"view"},{"type":"function","name":"rateBtoA","inputs":[],"outputs":[{"name":"","type":"uint256","internalType":"uint256"}],"stateMutability":"view"},{"type":"function","name":"renounceOwnership","inputs":[],"outputs":[],"stateMutability":"nonpayable"},{"type":"function","name":"setRates","inputs":[{"name":"_rateAtoB","type":"uint256","internalType":"uint256"},{"name":"_rateBtoA","type":"uint256","internalType":"uint256"}],"outputs":[],"stateMutability":"nonpayable"},{"type":"function","name":"swapAtoB","inputs":[{"name":"amountA","type":"uint256","internalType":"uint256"}],"outputs":[],"stateMutability":"nonpayable"},{"type":"function","name":"swapBtoA","inputs":[{"name":"amountB","type":"uint256","internalType":"uint256"}],"outputs":[],"stateMutability":"nonpayable"},{"type":"function","name":"tokenA","inputs":[],"outputs":[{"name":"","type":"address","internalType":"contract IERC20"}],"stateMutability":"view"},{"type":"function","name":"tokenB","inputs":[],"outputs":[{"name":"","type":"address","internalType":"contract IERC20"}],"stateMutability":"view"},{"type":"function","name":"transferOwnership","inputs":[{"name":"newOwner","type":"address","internalType":"address"}],"outputs":[],"stateMutability":"nonpayable"},{"type":"function","name":"withdraw","inputs":[{"name":"token","type":"address","internalType":"address"},{"name":"amount","type":"uint256","internalType":"uint256"}],"outputs":[],"stateMutability":"nonpayable"},{"type":"event","name":"OwnershipTransferred","inputs":[{"name":"previousOwner","type":"address","indexed":true,"internalType":"address"},{"name":"newOwner","type":"address","indexed":true,"internalType":"address"}],"anonymous":false},{"type":"event","name":"Swapped","inputs":[{"name":"user","type":"address","indexed":true,"internalType":"address"},{"name":"tokenIn","type":"address","indexed":false,"internalType":"address"},{"name":"tokenOut","type":"address","indexed":false,"internalType":"address"},{"name":"amountIn","type":"uint256","indexed":false,"internalType":"uint256"},{"name":"amountOut","type":"uint256","indexed":false,"internalType":"uint256"}],"anonymous":false},{"type":"error","name":"OwnableInvalidOwner","inputs":[{"name":"owner","type":"address","internalType":"address"}]},{"type":"error","name":"OwnableUnauthorizedAccount","inputs":[{"name":"account","type":"address","internalType":"address"}]}],"bytecode":{"object":"0x608060405234801561001057600080fd5b50604051610a63380380610a6383398101604081905261002f91610113565b846001600160a01b03811661005e57604051631e4fbdf760e01b81526000600482015260240160405180910390fd5b610067816100a7565b50600180546001600160a01b039586166001600160a01b031991821617909155600280549490951693169290921790925560039190915560045550610169565b600080546001600160a01b038381166001600160a01b0319831681178455604051919092169283917f8be0079c531659141344cd1fd0a4f28419497f9722a3daafe3b4186f6b6457e09190a35050565b80516001600160a01b038116811461010e57600080fd5b919050565b600080600080600060a0868803121561012b57600080fd5b610134866100f7565b9450610142602087016100f7565b9350610150604087016100f7565b6060870151608090970151959894975095949392505050565b6108eb806101786000396000f3fe608060405234801561001057600080fd5b50600436106100a95760003560e01c8063ac6af28011610071578063ac6af28014610123578063da0d673514610136578063e0441df014610149578063e6420c231461015c578063f2fde38b14610165578063f3fef3a31461017857600080fd5b8063022dd311146100ae5780630fc63d10146100ca5780635f64b55b146100f5578063715018a6146101085780638da5cb5b14610112575b600080fd5b6100b760045481565b6040519081526020015b60405180910390f35b6001546100dd906001600160a01b031681565b6040516001600160a01b0390911681526020016100c1565b6002546100dd906001600160a01b031681565b61011061018b565b005b6000546001600160a01b03166100dd565b61011061013136600461076a565b61019f565b61011061014436600461078c565b6101b2565b61011061015736600461078c565b6103f8565b6100b760035481565b6101106101733660046107c1565b610631565b6101106101863660046107e3565b61066f565b6101936106ed565b61019d600061071a565b565b6101a76106ed565b600391909155600455565b600081116102075760405162461bcd60e51b815260206004820181905260248201527f416d6f756e74206d7573742062652067726561746572207468616e207a65726f60448201526064015b60405180910390fd5b600060035482610217919061080d565b6002546040516370a0823160e01b815230600482015291925082916001600160a01b03909116906370a0823190602401602060405180830381865afa158015610264573d6000803e3d6000fd5b505050506040513d601f19601f820116820180604052508101906102889190610838565b10156102a65760405162461bcd60e51b81526004016101fe90610851565b6001546040516323b872dd60e01b8152336004820152306024820152604481018490526001600160a01b03909116906323b872dd906064016020604051808303816000875af11580156102fd573d6000803e3d6000fd5b505050506040513d601f19601f820116820180604052508101906103219190610893565b5060025460405163a9059cbb60e01b8152336004820152602481018390526001600160a01b039091169063a9059cbb906044016020604051808303816000875af1158015610373573d6000803e3d6000fd5b505050506040513d601f19601f820116820180604052508101906103979190610893565b50600154600254604080516001600160a01b03938416815292909116602083015281018390526060810182905233907f6782190c91d4a7e8ad2a867deed6ec0a970cab8ff137ae2bd4abd92b3810f4d3906080015b60405180910390a25050565b600081116104485760405162461bcd60e51b815260206004820181905260248201527f416d6f756e74206d7573742062652067726561746572207468616e207a65726f60448201526064016101fe565b600060045482610458919061080d565b6001546040516370a0823160e01b815230600482015291925082916001600160a01b03909116906370a0823190602401602060405180830381865afa1580156104a5573d6000803e3d6000fd5b505050506040513d601f19601f820116820180604052508101906104c99190610838565b10156104e75760405162461bcd60e51b81526004016101fe90610851565b6002546040516323b872dd60e01b8152336004820152306024820152604481018490526001600160a01b03909116906323b872dd906064016020604051808303816000875af115801561053e573d6000803e3d6000fd5b505050506040513d601f19601f820116820180604052508101906105629190610893565b5060015460405163a9059cbb60e01b8152336004820152602481018390526001600160a01b039091169063a9059cbb906044016020604051808303816000875af11580156105b4573d6000803e3d6000fd5b505050506040513d601f19601f820116820180604052508101906105d89190610893565b50600254600154604080516001600160a01b03938416815292909116602083015281018390526060810182905233907f6782190c91d4a7e8ad2a867deed6ec0a970cab8ff137ae2bd4abd92b3810f4d3906080016103ec565b6106396106ed565b6001600160a01b03811661066357604051631e4fbdf760e01b8152600060048201526024016101fe565b61066c8161071a565b50565b6106776106ed565b60405163a9059cbb60e01b8152336004820152602481018290526001600160a01b0383169063a9059cbb906044016020604051808303816000875af11580156106c4573d6000803e3d6000fd5b505050506040513d601f19601f820116820180604052508101906106e89190610893565b505050565b6000546001600160a01b0316331461019d5760405163118cdaa760e01b81523360048201526024016101fe565b600080546001600160a01b038381166001600160a01b0319831681178455604051919092169283917f8be0079c531659141344cd1fd0a4f28419497f9722a3daafe3b4186f6b6457e09190a35050565b6000806040838503121561077d57600080fd5b50508035926020909101359150565b60006020828403121561079e57600080fd5b5035919050565b80356001600160a01b03811681146107bc57600080fd5b919050565b6000602082840312156107d357600080fd5b6107dc826107a5565b9392505050565b600080604083850312156107f657600080fd5b6107ff836107a5565b946020939093013593505050565b808202811582820484141761083257634e487b7160e01b600052601160045260246000fd5b92915050565b60006020828403121561084a57600080fd5b5051919050565b60208082526022908201527f496e73756666696369656e74206c697175696469747920696e20636f6e74726160408201526118dd60f21b606082015260800190565b6000602082840312156108a557600080fd5b815180151581146107dc57600080fdfea2646970667358221220776b7f99eed9f5900b4ff1d1661bc625b3110f300397800203a230896520dd4464736f6c63430008190033","linkReferences":{}},"methodIdentifiers":{"owner()":"8da5cb5b","rateAtoB()":"e6420c23","rateBtoA()":"022dd311","renounceOwnership()":"715018a6","setRates(uint256,uint256)":"ac6af280","swapAtoB(uint256)":"da0d6735","swapBtoA(uint256)":"e0441df0","tokenA()":"0fc63d10","tokenB()":"5f64b55b","transferOwnership(address)":"f2fde38b","withdraw(address,uint256)":"f3fef3a3"},"id":27}